:020000040800F2
:1000000070070020990200082F3300088B29000890
:100010002D3300085D150008173B000800000000A4
:10002000000000000000000000000000C9370008C8
:100030005F150008000000009D340008CB37000861
:10004000B3020008B3020008B3020008B3020008BC
:10005000B3020008B3020008B3020008B3020008AC
:10006000B3020008B3020008B3020008B30200089C
:10007000B3020008B3020008B3020008B30200088C
:10008000B302000800000000B3020008B302000839
:10009000B3020008B3020008B3020008B30200086C
:1000A000B3020008B3020008B3020008B30200085C
:1000B0004538000851380008B3020008B3020008B0
:1000C000B3020008B3020008B3020008B30200083C
:1000D000B3020008B3020008B3020008B30200082C
:1000E000B3020008B3020008B3020008B30200081C
:1000F000B3020008B3020008B302000800000000C9
:1001000000000000B302000800000000B302000875
:10011000B302000800000000B3020008B3020008A8
:10012000B3020008B3020008B3020008B3020008DB
:10013000B30200080000000000000000B302000845
:10014000B3020008B3020008000000000000000035
:10015000000000000000000000000000000000009F
:10016000000000000000000000000000B3020008D2
:10017000B3020008000000000000000000000000C2
:1001800000000000B30200080000000000000000B2
:10019000000000000000000000000000000000005F
:1001A0000000000000000000B3020008B3020008D5
:1001B000B3020008B3020008B30200080000000008
:1001C00000000000B3020008000000000000000072
:1001D000B3020008B302000800F002F800F04CF887
:1001E0000AA090E8000C82448344AAF10107DA4592
:1001F00001D100F041F8AFF2090EBAE80F0013F098
:10020000010F18BFFB1A43F001031847A44E00006A
:10021000C44E0000103A24BF78C878C1FAD85207FB
:1002200024BF30C830C144BF04680C607047000070
:100230000023002400250026103A28BF78C1FBD8EF
:10024000520728BF30C148BF0B607047662903F0D2
:10025000F285642900F05480002070471FB503F038
:10026000E5FD00F0C1FB04000020002103F0B6FC16
:10027000E0601FBD10B510BD00F0B6FC1146FFF7E1
:10028000EDFF03F079FC00F0D4FC03B4FFF7F2FFBC
:1002900003BC00F017FD00000948804709480047EB
:1002A000FEE7FEE7FEE7FEE7FEE7FEE7FEE7FEE726
:1002B000FEE7FEE704480549054A064B7047000083
:1002C00035380008D90100087001002070070020AF
:1002D00070030020700300200FB41CB5074B06AA62
:1002E0007B4469460090059800F065FB0020694654
:1002F00000F074FB1CBC5DF814FB0000F906000064
:100300002DE9F0410646002410687529314616A5EE
:1003100010D0AFF30080002802DA404213A507E0B6
:1003200031688A0701D512A502E0490704D511A555
:10033000012401E0AFF3008000210A2206F1240726
:1003400009E0B0FBF2FCB0FBF2F302FB1C00303022
:1003500078541846491C0028F3D123462A463046D3
:10036000BDE8F04100F0B9B8000000002D00000029
:100370002B000000200000002DE9F0474FF0000A9C
:1003800089460446C0F820A02046E1688847002836
:1003900076D0252806D0D4E901219047206A401C58
:1003A0002062F1E7E168204600258847C4F81CA0D8
:1003B00006460027C4F818A02A2E09D0304603F0BC
:1003C000D3FB38B304EB8708303EC8F8186019E057
:1003D00059F8041B204604EB87029161E1688847C5
:1003E000012F064618D1E069002820DA25F0200503
:1003F0001DE0D8F8180000EB800006EB4000303814
:10040000C8F818002046E1688847064603F0ACFBB0
:100410000028EED1012F0AD02E2E08D12046E16807
:1004200088477F1C0646022F45F02005C4DBA069E3
:10043000002803DA404245F00105A061E80701D039
:1004400025F01005B6B1A6F14100192802D82036D2
:1004500045F400654A463146204625604D46FFF783
:10046000F5FE58B1012806D0ED1D25F0070000F17A
:10047000080989E704E005F1040985E730468AE7C1
:10048000206ABDE8F0874FF0000200B5134694469D
:100490009646203922BFA0E80C50A0E80C50B1F1DC
:1004A0002001BFF4F7AF090728BFA0E80C5048BFF0
:1004B0000CC05DF804EB890028BF40F8042B08BF8E
:1004C000704748BF20F8022B11F0804F18BF00F88A
:1004D000012B70477047704770472DE9F0470D4674
:1004E00099469246044600F124080168880604D51E
:1004F000E06921F01001216000E00120A84201DD47
:10050000471B00E00027A1697A1902EB0900081ACD
:10051000A0612078C00602D42046AFF300800026F8
:1005200008E0D4E901211AF806009047206A401C2F
:10053000761C20624E45F4DB2078C0060AD52046A2
:10054000AFF3008006E0D4E9012130209047206A13
:10055000401C2062381EA7F10107F4DC07E0D4E953
:10056000012118F805009047206A401C2062281ECF
:10057000A5F10105F3DC2046AFF3008020780006EA
:1005800002D50220BDE8F0870120FBE770472DE986
:10059000FF4F0C461E464FF0FF378BB0D2E90001EB
:1005A000DDF860800A908A46C1F30A5505B93D46D8
:1005B000002108464FF00000BAF1000F00F440009F
:1005C00005DA00EB80004FF4400101EA50004FEAE9
:1005D0009059B9F1010F00DDB9460A9850EA4A0076
:1005E0000ED044F61050A5F2FF3545432F14B8F154
:1005F000000F1ED07542291E1EDDC9F100021CE04D
:10060000B8F1010F4FF0000001D0302103E0F243B8
:1006100005E02154401CB042FBDB304600220021A3
:1006200021540B99C1F80880C1E900200FB0BDE842
:10063000F08FBD1B6D1CDEE74A4600DA694206A852
:1006400000F05CFA06AB93E8070003AB83E8070011
:1006500050460A9900F03DFB8DE80700A0F50050D8
:100660001F3800900398002D0ADD42F21F014A4610
:100670000844002303A90390684600F0A6FD09E0A2
:10068000A0F500504A461F38002303A9039068468E
:1006900000F0B0FD8DE807000004000C03D04FF01F
:1006A000FF30410800E01046B8F1000F03D00022EF
:1006B000009215461EE0751E05D400F099F93032FF
:1006C00062556D1EF9D5B3460122084302D00022BF
:1006D0007F1C04E02078302801D100227F1E002AF0
:1006E000099784D01DE0112D07DA00F081F930322E
:1006F00062556D1C50EA0102F5D1084302D0009802
:10070000C8B10EE00021681E05E0235C625C635402
:100710002254401E491C8142F7DBAB46A81B401EF9
:100720000990002004F80B000B98099AC0F8088083
:10073000C0E9002B7AE711264FF0000857E72DE9B2
:10074000F04F88460446D21D22F0070191B0D1E94E
:100750000001CDE90A0103F0DFF902460B98C00F52
:1007600001D02D2007E02068810701D52B2002E071
:10077000202101EAC000032A099001D0072A05DBE5
:1007800003464146204600F079F90BE120788006C7
:1007900001D5E06900E00620B8F1650F814606D07A
:1007A000B8F1660F18D0B8F1670F70D131E00020B2
:1007B000B9F1110F009001DB112301E009F10103F0
:1007C0000AAA01A90CA8FFF7E2FEDDE90C700026D9
:1007D00009F10105834647E001204B4600904FF0A8
:1007E00000470AAA01A90CA8FFF7D1FEDDE90DB068
:1007F0000C995D46002610B909F101000D18B9EBFE
:10080000050003D4C0F1FF3609F10105A5EB09008D
:100810002BE0B9F1010F01DA4FF001090020B9F125
:10082000110F0090484601DD112300E003460AAA9B
:1008300001A90CA8FFF7ABFEDDE90C704D460026C0
:100840008346207800070AD4AB4500DA5D4601A84C
:10085000012D04DD411911F8011C302907D04F4545
:1008600002DA17F1040F04DA012082460FE06D1E50
:10087000EEE7002F02DCED1B3E4403E0781CA842AB
:1008800000DD7D1CB81B00F1010A4FF00047207805
:10089000000703D4AA4501DB4FF0FF3A0021B7F16E
:1008A000004F0DF143088DF8431024D002202B2374
:1008B000002F01DA7F422D230A21021EA0F1010040
:1008C00000DC5FB197FBF1FC97FBF1F201FB1C7CB4
:1008D00017460CF1300C08F801CDEEE7A8F1010045
:1008E00003702188090501D5452100E06521A0F1AB
:1008F000010800F8011C09980FA9A1EB0807FF1DCA
:1009000000B10120411901EBEA70A1693844081ACD
:10091000401EA0612078C00602D42046AFF30080BC
:10092000099828B1D4E901219047206A401C20622F
:100930002078C00622D52046AFF300801EE0002EAE
:1009400004DBB34502DD01A8805D00E03020D4E97E
:1009500001219047206A401C2062761CAAF1010008
:100960005FEA000A0AD100F03FF8C0680168405C05
:10097000D4E901219047206A401C2062281EA5F17D
:100980000105DCDC07E0D4E9012118F8010B9047F0
:10099000206A401C2062381EA7F10107F3DC2046C4
:1009A000AFF30080032011B041E6000001694A1C4A
:1009B00002610878704700B58FB0CDE901310021A0
:1009C000059105497944CDE9031011466846FFF7C2
:1009D000D3FC0FB000BD0000E5FFFFFF0A6802F87E
:1009E000010B0A6070470000004870472C0100208E
:1009F00030B5B0F10A024FEA900E71F100034EEAF1
:100A0000817EB0EB0E0061EB91014FEA101E4EEAC1
:100A1000017E10EB0E0041EB11114FEA102E4EEA51
:100A2000016E10EB0E0041EB11214FEA104E4EEA21
:100A3000014E10EB0E0041EB1141401841F1000155
:100A40004FEAD00040EA41704FEAD10110EB800537
:100A50004FEA810444EA907444EB01046D1944EBBD
:100A60000404521BA3414FF0000348BF0A3200D5D3
:100A700030BD401C41F1000130BD00002DE9F041C6
:100A80001F46044603260168072A01F4006004DBC0
:100A900008B116A505E016A503E008B115A500E00C
:100AA00015A521F010002060A069C01EA0610FB143
:100AB000401EA0612046AFF300804FB1D4E9012170
:100AC00038469047206A401C2062C01C206206E025
:100AD000206AFAE7D4E9012115F8010B9047761E48
:100AE000F8D22046AFF30080BDE8F0814E414E00C1
:100AF0006E616E00494E4600696E66002DE9F04752
:100B0000814616468AB0354878440DC88DE80D00F8
:100B100032487844801C03AC0DC884E80D0041F6CF
:100B20009B300844372190FBF1F290FBF1F5A5F1E1
:100B3000800501FB12041B3C02D56442012000E049
:100B40000020DFF898A080460027FA44AAF1BE0AE8
:100B50000EE0E0070AD03246684607EB4701012362
:100B60000AEB810100F046FB8DE8070064107F1C52
:100B7000002CEED1194F7F44AE3F19E0E80715D0A5
:100B800007EB04100DF1180A90E80E008AE80E0039
:100B9000C068F04201D1981908903246012306A995
:100BA00003A800F027FB03AB83E807006D10641C6B
:100BB000002DE3D14FF0010332466946B8F1000F32
:100BC00003A802D000F001FB01E000F013FBC9E92B
:100BD0000001C9F808200AB0BDE8F0878C45000084
:100BE000004870470C0100207546FFF7F9FFAE463C
:100BF00005006946534620F00700854618B020B529
:100C0000FFF758FBBDE820404FF000064FF000070B
:100C10004FF000084FF0000B21F00701AC46ACE8A4
:100C2000C009ACE8C009ACE8C009ACE8C0098D4611
:100C3000704710B50446AFF300802046BDE8104071
:100C4000FFF723BB4FF0013C50F8042B51F8043B55
:100C50009A4221D1A2EB0C03934313EACC1317D190
:100C600050F8042B51F8043B9A4215D1A2EB0C0327
:100C7000934313EACC130BD150F8042B51F8043BE7
:100C80009A4209D1A2EB0C03934313EACC13DBD0B5
:100C90004FF00000704700BFD01A01BAB1FA81F1DD
:100CA00001F0180122FA01F0CB40C1F12001DBB2C2
:100CB000C0B2C01A2CFA01F3D11A914311EAC31140
:100CC000E6D1704701491820ABBEFEE726000200BE
:100CD00070475FEA400C08BF91F0000F4FEA8C2389
:100CE0004FEAC12243EA51514FEA1C5018BF00F5A8
:100CF000F0404FEA300018BF41F000415FEA6C5C01
:100D000000F02980BCF1FF3F08BF40F080407047F1
:100D1000130C06BF12044FF0100C4FF0000C130E12
:100D200004BF12020CF1080C130F04BF12010CF1E6
:100D3000040C930F04BF92000CF1020CD30F04BFFC
:100D400052000CF1010C11464FF00002A0F11F00FF
:100D5000A0EB0C00704711F0004F08BF704731F056
:100D600000413FF4D5AF0B0C06BF09044FF0100C47
:100D70004FF0000C0B0E04BF09020CF1080C0B0F16
:100D800004BF09010CF1040C8B0F04BF89000CF1A6
:100D9000020CCB0F04BF49000CF1010CCCF1200375
:100DA000A0EB0C0022FA03F302FA0CF241EA030171
:100DB00000F10100704720F07F4C80EA030023F02F
:100DC0007F47ACEB070303F57C5300F0004003F1D1
:100DD000FF032DE980494FEA154B09B44FEA14434C
:100DE00025EA0B4E24EA03480FF2042606EB1327EC
:100DF00049083E785FEA320203FB0667C7F5000741
:100E000007FB06F64FEA54374FEAD64606F10206CC
:100E100007FB066CCCF1005C4FEA1C472CEA074C40
:100E200007FB06F40CFB06F504EB15464FEA961695
:100E300034BF00204FF000404FEAD13706FB07FCDB
:100E40004FEA1C4C0CFB0BF7D21B03FB0CF761EBBE
:100E500007010CFB0EF7B0EB074072EB17420CFBDF
:100E600008F734BFA2EB0742B2EB074261EB174130
:100E70004FEA0C444FEA910706FB07FC4FEA1C4C73
:100E80000CFB0BF7B0EBC74072EB573203FB0CF7D0
:100E900034BFA2EBC742B2EBC74261EB57310CFB48
:100EA0000EF7B0EBC70072EB57720CFB08F734BFBC
:100EB000A2EBC702B2EBC70261EB5771039F4FEA87
:100EC000816141EA921104EBCC044FEAD1374FEA39
:100ED000826206FB07FC42EA90124FEA80604FEA0A
:100EE0001C4C0CFB0BF7D21B03FB0CF761EB07014F
:100EF0000CFB0EF7B0EB074072EB17420CFB08F748
:100F000034BFA2EB0742B2EB074261EB17414FEA55
:100F10008C554FEA910704EB9C2406FB07FC4FEA33
:100F20001C4C0CFB0BF7B0EBC74072EB573203FBCA
:100F30000CF734BFA2EBC742B2EBC74261EB5731AB
:100F40000CFB0EF7B0EBC70072EB57720CFB08F707
:100F500034BFA2EBC702B2EBC70261EB577115EBCE
:100F60004C254FEA816141EA92114FEA82624FEAD1
:100F7000D13742EA901206FB07FC44F100044FEA25
:100F800080604FEA1C4C0CFB0BF7D21B03FB0CF7E9
:100F900061EB07010CFB0EF7B0EB074072EB174259
:100FA0000CFB08F734BFA2EB0742B2EB074261EB40
:100FB000174115EB1C154FEA813141EA92414FEA86
:100FC000823242EA90424FEA80304FEA0C7644F196
:100FD000000448EA03434EEA0B484FF0000EB2EB20
:100FE000080C71EB030724BF624639464EEB0E0E28
:100FF0004FF0000B0018524149414BEB0B0BB2EB89
:10100000080C71EB03077BF1000B24BF62463946E5
:101010004EEB0E0E4FF0000B0018524149414BEBC6
:101020000B0BB2EB080C71EB03077BF1000B24BF39
:10103000624639464EEB0E0E51EA020718BF46F0E3
:10104000010616EB0E7655F1000254F1000103D5AE
:10105000BDE88901BDE80088BDE88901BDE8004818
:10106000B619524141EB0101A3F1010370478080A1
:101070007F7E7D7C7B7A79787776767574737271F2
:1010800071706F6E6E6D6C6C6B6A6A6968686766AA
:1010900066656464636362616160605F5F5E5E5D3C
:1010A0005D5C5C5B5B5A5A595958585757565655B0
:1010B00055555454535352525251515050504F4F12
:1010C0004F4E4E4D4D4D4C4C4C4B4B4B4A4A4A4962
:1010D00049494848484747474746464645454544A5
:1010E0004444444343434342424242414141002B32
:1010F0009C4630D477002BD01CB54FEA370703B499
:101100004FF010004FF01001BAF1000F06D0BCF103
:10111000000FDCBF40F0080040F008014FF0000075
:101120000FBCBDE810400BF1010BBBF1010F08BF74
:101130005FEA170722BF12F1010211F101014FF01E
:10114000004143F1000300F0004043EA0000704713
:10115000F9D35708D0E746EA064613F1400F4FEAA5
:1011600016461FDD13F1200FDFBF16430A4600218C
:1011700020335B42BED0C3F1200746EA064602FA9E
:1011800007F74FEA164646EA0706C3F1200722FA98
:1011900003F201FA07F721FA03F14FF0000342EAE4
:1011A0000702A7E746EA020646EA06464FEA16465F
:1011B00046EA0106BCBF46EA0646360C4FF000037D
:1011C0004FF000024FF0000194E72DE9804C9A4661
:1011D000934670B491E8380007C831EA400C48BF24
:1011E00034EA430C03D5FFF7E6FDFFF780FFF0BCC0
:1011F000BDE8008C2DE9804C9A46934670B491E886
:10120000380007C810F0804F08BF13F0804F03D19B
:1012100000F005F8FFF76BFFF0BCBDE8008C20F094
:101220007F4780EA030023F07F4C07EB0C03A3F514
:101230007C5300F00040A3F1FE0392F0000F00F099
:10124000B38095F0000F00F077802DE901494FEA57
:1012500011404FEA144621EA004800FB06FC24EA4C
:10126000064708FB06F607FB08F800FB07F718EB34
:1012700006484CEB164C4FEA124B18EB07484FEA66
:1012800015464CEB174022EA0B4E0BFB06FC25EAF9
:1012900006470EFB06F607FB0EFE0BFB07F71EEBE1
:1012A000064E4CEB164C4FF000061EEB074E4CEB77
:1012B000174B18EB0B0840F1000018EB0E0B58EB26
:1012C000000840F100008F1A4FF000013CBFC943F5
:1012D000661B14BFB5EB040C00213CBFC943F61BD1
:1012E0004FEA17444EEA8E0E27EA04454FEA1C47A0
:1012F00004FB07622CEA074C05FB07F70CFB05F61D
:1013000004FB0CFC16EB074642EB174216EB0C46AF
:1013100042EB1C421BEB060658EB0202414146EA37
:101320009E0601D5BDE80189B619524141EB010184
:10133000A3F10103BDE801894FEA14454FEA1147C3
:1013400024EA054621EA074C05FB07F406FB07F7EC
:101350000CFB06F105FB0CFC11EB074144EB1744B9
:101360004FEA124711EB0C4144EB1C4422EA074CB4
:1013700005FB07F206FB07F70CFB06F605FB0CFC6A
:1013800016EB074642EB174216EB0C4642EB1C45A8
:101390006A1854F1000148BF7047B619524141EB39
:1013A0000101A3F10103704795F0000F37D04FEA18
:1013B00011424FEA144721EA024624EA074C02FB95
:1013C00007F106FB07F70CFB06F402FB0CFC14EB21
:1013D000074441EB17414FEA154714EB0C4441EB2E
:1013E0001C4125EA074C02FB07F506FB07F70CFB3F
:1013F00006F602FB0CFC16EB074645EB174516EB11
:101400000C4645EB1C42121951F1000148BF7047D0
:10141000B619524141EB0101A3F1010370474FEAB4
:1014200014454FEA114724EA054621EA074C05FB1B
:1014300007F106FB07F70CFB06F24FF0000605FB71
:101440000CFC12EB074241EB174112EB0C4251EB43
:101450001C4148BF7047921841EB0101A3F1010301
:10146000704700002DE9F04186B014216846FFF76F
:101470000AF83648C16C41F00401C164C16C01F046
:1014800004010591C16C41F02001C164C16C01F0FF
:1014900020010591C16C41F00101C164C16C01F0F2
:1014A00001010591C16C41F00201C164C16C01F000
:1014B00002010591C16C41F00801C164C06C244F68
:1014C00000F008004FF47F4605900122314638466F
:1014D00000F0EFF9DFF87C8000220421404600F0A4
:1014E000E8F9012500240096CDE901546946384603
:1014F000039400F0B5F8CDE9005469464FF09040F0
:10150000029400F0ADF80720CDE9000469461248C6
:10151000029400F0A5F804200090CDE9015469463A
:101520004046039400F09CF801223146384600F012
:10153000C0F901220421404600F0BBF90022042139
:10154000404600F0B6F906B0BDE8F0810010024058
:1015500000080048000C004800040048FEE77047FF
:10156000002240F6B83306E00021491C89B29942B6
:10157000FBD3521C92B28242F6D37047F0B52C4A8C
:1015800011682C48C36BC91A0A2937D31168C16383
:101590000146438B44890978A34205D9C58B41F0A4
:1015A00002016D1CC58301E021F002010170818BF5
:1015B000A14206D9048C641C0484047844F003041A
:1015C00002E0047824F0030404701468056C40F60B
:1015D000B83EA4EB050C174CF445278DA68DE58C81
:1015E000648D0CD2B94200D90185B14200D2818507
:1015F000AB4200D9C184A14200D24385F0BDC1886D
:10160000BB1B8B4202DD038C5B1C03842B1B8B42B8
:1016100002DDC18B491CC183116801644FF4FA716A
:10162000C18445F6D812428501858285F0BD00004F
:10163000540000200000002072B6FEE770B504469A
:1016400000F03CF90546601C02D0044840680444A0
:1016500000F034F9401BA042FAD370BD4C000020CA
:101660002DE9F04FDFF82092002301260324A9F191
:10167000040B85B00F2709F1040AABF1040EFAE060
:1016800006FA03F52A407CD091F804C00CF0030C54
:10169000BCF1010F02D0BCF1020F26D1D0F808C076
:1016A000CDF800C04FEA430C04FA0CF8CDF810C096
:1016B000DDF800C02CEA080CCDF800C0D1F80C8091
:1016C000DDF810C008FA0CF8DDF800C048EA0C0894
:1016D000C0F80880D0F804C02CEA050C0D79C5F3D9
:1016E00000159D4045EA0C0545600D79ED43AD07B9
:1016F0000ED0C5684FEA430804FA08FC25EA0C0539
:10170000D1F808C00CFA08FC4CEA050CC0F80CC073
:101710000D7905F00305022D16D1DD0800EB850CCF
:10172000CDF808C0DCF820805D074FEAD56C07FAD9
:101730000CF528EA05080D6905FA0CF5DDF808C076
:1017400045EA0805CCF8205005684FEA430CCDF86F
:1017500008C004FA0CFC25EA0C0591F804C00CF052
:101760000308DDF808C008FA0CF848EA0508C0F8D4
:1017700000804D6815F4403F7CD0444DD5F860C0E2
:1017800000E077E04CF0010CC5F860C02D6E23F04E
:10179000030C05F0010500953D4D65440295AD68CB
:1017A0004FEA837C4FEA1C7807FA08FC25EA0C050F
:1017B000B0F1904F06D0DFF8DCC0604505D14FF0A6
:1017C000010C20E04FF0000C1DE0DFF8CCC06045BC
:1017D00002D14FF0020C16E0DFF8C0C0604502D124
:1017E0004FF0030C0FE0DFF8B8C0604502D14FF0B6
:1017F000040C08E0DFF8ACC0604502D14FF0050CE6
:1018000001E04FF0060C0CFA08FC4CEA050C029DB6
:10181000C5F808C0D9F80050CC46D1F804809543EB
:101820005FEAC82800D51543CCF80050DAF800501C
:10183000D446D1F8048095435FEA882800D5154343
:10184000CCF80050DBF80050DC46D1F8048095431A
:101850005FEA883800D51543CCF80050DEF8005018
:10186000F446D1F8048095435FEAC83800D51543A3
:10187000CCF800505B1C0A6832FA03F57FF400AF25
:1018800005B0BDE8F08F00000804014000100240E0
:10189000000001400004004800080048000C004817
:1018A00000100048001400480069084000D00120E2
:1018B00070470AB181617047816270470148806852
:1018C000704700004C0000200248816842681144C3
:1018D000816070474C00002010B50024032000F008
:1018E00077F8032000F008F808B1012401E000F0C7
:1018F00025F8204610BD000070B50E4E05460024A8
:10190000706898B14FF47A71B1FBF0F00A49096838
:10191000B1FBF0F000F0FCFB40B9102D06D2002224
:101920002946501E00F034F8356000E001242046BE
:1019300070BD00004C000020580000200C4808B585
:10194000016E41F001010166016E01F0010100919B
:10195000816D41F080518165806D00F08050009074
:10196000052000F035F8BDE8084000F0A1B80000FF
:1019700000100240002809DB00F01F020121914005
:101980004009800000F1E020C0F80011704700001D
:10199000F0B40E4B1B680C46C3F30223C3F10705DA
:1019A000042D00D90425191D072901D2002300E0C8
:1019B000DB1E012606FA05F1491E214099409E4092
:1019C000761E16403143F0BC02F0BEB80CED00E0CC
:1019D000064900F0070208684FF6FF03184040EA86
:1019E0000220034A10430860704700000CED00E03D
:1019F0000000FA052B492C4B0A6832214A432B4937
:101A000040B1B0F5007F086829D020F4C06040F4F0
:101A100080602CE00868C0F34120022804D051F80F
:101A2000800F20F4807022E0D1F8800020F48070D4
:101A3000C1F88000086820F4C06040F400700860BD
:101A4000B2FBF3F0401C00E0401E4A69520501D58C
:101A50000028F9D1486940050AD503207047C0F332
:101A60004120022806D051F8800F40F480700860B1
:101A700000207047D1F8800040F48070C1F88000E9
:101A8000086820F4C06040F400700860B2FBF3F016
:101A9000401C00E0401E4A695205DBD50028F9D100
:101AA000D8E700005800002040420F0000700040BE
:101AB0000248816841F480418160704700700040B5
:101AC0002DE9F0470E4605004FF0000725D0DFF85E
:101AD000AC81D8F8000000F00F00B0420CD2D8F86A
:101AE000001021F00F013143C8F80010D8F80000B1
:101AF00000F00F00B04210D12968614CC80741F2D4
:101B0000883A5AD06868DFF87C91032808D0022808
:101B100020682DD0400500282CDB0120BDE8F0878F
:101B200020688001F9D5E06800F00302E068C0F3A6
:101B30000310401C032A19D0534A00BFB2FBF0F037
:101B4000E268C2F306225043E268C2F34162521CCB
:101B50005200B0FBF2F0484517D9A06810F0F00F22
:101B60000CD0880711D5A86840B10EE0474AE5E7D8
:101B70008003D0E700F092F8484506D9A06820F02D
:101B8000F00040F08000A0608027A068696820F025
:101B900003000843A060FFF791FE814606E000BF06
:101BA000FFF78CFEA0EB090151453AD8A06869689F
:101BB00000F00C00B0EB810FF2D12868810714D53A
:101BC000400703D5A06840F4E060A06028780007D3
:101BD00005D5A06820F4605040F4E060A060A068E3
:101BE000A96820F0F000084304E0802F03D1A0682A
:101BF00020F0F000A060D8F80010404601F00F017E
:101C0000B14216D9016821F00F0131430160FFF79D
:101C100055FE074607E000BFFFF750FEC11B5145C8
:101C200001D903207AE7D8F8000000F00F00B04295
:101C3000F2D12878400705D5A068E96820F4E06073
:101C40000843A0602878000706D5A068296920F419
:101C5000605040EAC100A06000F020F8A1680C4A82
:101C6000C1F30311515C01F01F01C840094908602C
:101C700009480068BDE8F047FFF73EBE002002407B
:101C80000010024000B4C4040024F40000366E01C9
:101C90000A500008580000204C000020184910B5D8
:101CA0008868C0F381021748012A0BD08A68164B56
:101CB000C2F38102022A06D08A68C2F38102032A93
:101CC00003D0002010BD184610BDCA6802F00304FE
:101CD000CA68C2F30312521C032C02D0B0FBF2F00C
:101CE00001E0B3FBF2F0CA68C968C2F306225043B0
:101CF000C1F34161491C4900B0FBF1F010BD000087
:101D0000001002400024F40000366E012DE9F84373
:101D100004007AD02078F84DC00747D0A868E96859
:101D200000F00C0001F003010C2802D0082817D0A5
:101D300001E0032914D06068B0F5803F17D0B0F5FA
:101D4000A02F286817D020F480302860286820F45D
:101D5000802028606068E0B1FFF7B0FD064614E01F
:101D60002868800322D560680028D2D01EE0286849
:101D700040F48030EDE740F480202860F7E700BFB2
:101D8000FFF79CFD801B642870D828688003F7D576
:101D90000CE0FFF793FD064605E000BFFFF78EFD60
:101DA000801B6428F0D828688003F7D42078800747
:101DB0004CD5A868E96800F00C0001F003010C287C
:101DC00002D004280DD001E002290AD0E0680028E2
:101DD00028682BD040F480702860FFF76FFD06461E
:101DE00019E02868400502D5E068002891D06868AD
:101DF000217C20F0FE4040EA01606860BF48006836
:101E0000FFF77AFD002800D120E072E1FFF756FDD0
:101E1000801B0228B8D828684005F7D56868217C5F
:101E200020F0FE4040EA016068600FE020F480701E
:101E30002860FFF743FD064605E000BFFFF73EFDC3
:101E4000801B0228A0D828684005F7D42078000716
:101E500029D560690028D5F8940013D040F001001E
:101E6000C5F89400FFF72AFD064606E090E000BFA3
:101E7000FFF724FD801B022886D8D5F89400800740
:101E8000F6D510E020F00100C5F89400FFF716FD2C
:101E9000064604E0FFF712FD801B022878D8D5F82B
:101EA00094008007F6D42078400761D5A86D0026FD
:101EB000C00008D4A86D40F08050A865A86D012628
:101EC00000F0805000908E480168C90511D4016867
:101ED000804641F480710160FFF7F0FC074604E0A2
:101EE000FFF7ECFCC01B022852D8D8F80000C00550
:101EF000F6D5A068012815D00528D5F8900016D091
:101F000020F00100C5F89000D5F8900020F0040002
:101F1000C5F89000A06841F28838B8B1FFF7CEFC50
:101F200007460EE0D5F8900040F00100F0E740F0E1
:101F30000400C5F89000F5E7FFF7C0FCC11B414560
:101F400026D8D5F890008007F6D50CE0FFF7B6FC50
:101F5000074604E0FFF7B2FCC11B414518D8D5F88D
:101F600090008007F6D41EB1A86D20F08050A865BF
:101F70002078800629D5A0690028D5F8980013D0CC
:101F800040F00100C5F89800FFF798FC064606E00F
:101F900075E000BFFFF792FC801B02286FD8D5F8D0
:101FA00098008007F6D510E020F00100C5F89800F1
:101FB000FFF784FC064604E0FFF780FC801B022844
:101FC0005DD8D5F898008007F6D4E069F0B3A96829
:101FD000C1F3810103295DD00228286820F08070B8
:101FE000286003D0FFF76AFC04464BE0FFF766FC6D
:101FF000064604E0FFF762FC801B02283FD82868F1
:102000008001F7D4F4E908016FF00F0202EB01112F
:102010000843218A5204490802EB4151A26841EA6F
:1020200002210843217D4FF07E42490802EB4161C5
:102030000843217B40EAC160E968324A1140084305
:10204000E860286840F08070286000E05EE0E868A2
:1020500040F08070E860FFF731FC044605E000BF07
:10206000FFF72CFC001B022809D828688001F7D54F
:102070004CE000BFFFF722FC001B022802D903201E
:10208000BDE8F88328688001F4D4E8681E49084058
:10209000E8603BE00128F3D0E868226A00F0030121
:1020A000914226D1616A00F0F00209011039914293
:1020B0001FD1A26A00F4FE41B1EB022F19D194F8AE
:1020C0002C2000F07841B1EBC26F12D1218E00F4C8
:1020D000C00249084905A1F50011914209D194F8BF
:1020E000341000F0C06049084906A1F10071814236
:1020F0000CD00120C4E70000001002404C0000207A
:10210000007000400C809F01FCFFEEFE0020B7E74E
:1021100010B5401EB0F1807F01D3012010BD4FF0FB
:10212000E02460610F21601701F00EFD0020A06126
:1021300007202061002010BD70477047704770472E
:1021400070477047F0B590F83C20012A3AD001253D
:1021500080F83C50022280F83D2003685A689C6851
:10216000194E1A4FB34201D0BB4204D122F4700C75
:102170004A6842EA0C02DFF858C002EA0C02D1F8C1
:1021800000C04CEA020CC3F804C00268B2420DD091
:10219000B2F1804F0AD00F4B9A4207D00E4B9A42B1
:1021A00004D0BA4202D00D4B9A4204D1896824F07F
:1021B00080031943916080F83D50002180F83C1065
:1021C0000846F0BD0220F0BD002C01400034014063
:1021D0008FFFFFFD00040040000800400040014068
:1021E000704710B5040003D094F83D0010B107E02B
:1021F000012010BD002084F83C00204600F022F8A9
:10220000022084F83D00211D206801F027FB0120F9
:1022100084F8480084F83E0084F83F0084F84000C9
:1022200084F8410084F8420084F8430084F84400B4
:1022300084F8450084F8460084F8470084F83D009F
:10224000002010BD30B587B0044614216846FEF763
:102250001AF924680022274902234FF09040B4F174
:10226000804F25D0244DAC4220D18C6D44F0020427
:102270008C658C6D04F002040594CC6C44F002046F
:10228000CC64C96C01F00201059110210091CDE9E7
:1022900001326946CDE90323FFF7E2F9002202216A
:1022A0001D20FFF775FB1D20FFF764FB07B030BD55
:1022B0008C6D44F001048C658C6D04F00104059470
:1022C000CC6C44F00104CC64C96C01F001010591AF
:1022D0004FF400410091CDE901320121CDE9032104
:1022E0006946FFF7BDF9002202211C20FFF750FBD1
:1022F0001C20D9E7001002400004004090F83D1077
:10230000012901D001207047022180F83D100068AA
:102310000F4988420ED0B0F1804F0BD00D49884252
:1023200008D00D49884205D00C49884202D00C499A
:10233000884207D181680B4A1140062906D0B1F5C1
:10234000803F03D0016841F0010101600020704727
:10235000002C01400004004000080040003401400F
:10236000004001400700010070B5044690F83C00B1
:102370000025012814D0012684F83C60022084F84E
:102380003D0022689068364B184020F47F409060F2
:10239000086870282ED010DC10F00F0F03D021E059
:1023A0004FF0020070BD4FEA2012072A1AD2DFE870
:1023B00002F0525252524A3840002A4BC21A9842F6
:1023C00049D009DCB0F5805F0DD0B0F5005F1CD0BE
:1023D000B0F1101F06D13EE0102A3CD0202A3AD09E
:1023E000502A38D0012584F83D60002084F83C0054
:1023F000284670BDCB68D1E90121206801F099FA27
:102400002068816841F0770109E0CB68D1E90121BA
:10241000206801F08EFA2068816841F48041816073
:10242000E1E7CA684968206801F000FB5021206894
:1024300006E0CA684968206801F040FB6021206816
:1024400001F082FACFE7CA684968206801F0EEFA25
:1024500040212068F4E7226801461046F0E70000BA
:1024600088FFCEFF2000100070B5044600680D4DB7
:10247000B0F1804F08D1207F012812D100212046E1
:1024800000F042FA401CE88107492068884208D1E0
:10249000207F012805D10021204600F035FA401C9C
:1024A000E88170BD00000020000400402DE9F041EB
:1024B000054690F83C0000260C46012810D001206B
:1024C00085F83C0072B1042A1CD0082A2CD00C2AB2
:1024D00050D00126002085F83C003046BDE8F08150
:1024E0000220FBE7D4E90012E368286801F0B0FAA3
:1024F0002868816921F00C01816128688169A268DE
:1025000011430FE0D4E90012E368286801F0E8FA0B
:102510002868816921F44061816128688169A26825
:1025200041EA02218161D5E72868D4E9002C277BA4
:10253000036A016A21F480710162C16923F4206396
:1025400021F0030141EA0C0121F0F00C39074FF4AE
:1025500020674CEA116107EA02221A43C161026254
:102560002868C16921F00C01C1612868C169A268AD
:1025700011432BE02868D4E90021E768036AD0F80A
:1025800020C02CF4805CC0F820C0D0F81CC023F41C
:1025900020432CF4407C4CEA012121F4704C4FF68E
:1025A000FF7101EA07314FF4204741EA0C0107EAC5
:1025B00002321A43C16102622868C16921F4406194
:1025C000C1612868C169A26841EA0221C16181E74D
:1025D00010B5040003D094F83D0010B107E00120CD
:1025E00010BD002084F83C00204600F022F80220B4
:1025F00084F83D00211D206801F030F9012084F8A5
:10260000480084F83E0084F83F0084F8400084F8D5
:10261000410084F8420084F8430084F8440084F8C0
:10262000450084F8460084F8470084F83D00002007
:1026300010BD704730B50446002571B1042911D092
:10264000082914D00C2917D0102918D094F8430069
:1026500094F84720012817D114E094F83E0094F82C
:102660004420F7E794F83F0094F84520F2E794F807
:10267000400094F84620EDE794F84100E8E794F82C
:102680004200E5E7012A01D0012030BD022079B1E6
:10269000042916D008291DD00C2949D010294AD068
:1026A00084F8430084F847000C2947D001253DE019
:1026B00084F83E0084F844002068C26842F00202B8
:1026C00010E084F83F0084F845002068C26842F0BA
:1026D000040207E084F8400084F846002068C268DD
:1026E00042F00802C2600122206801F015F9164983
:1026F000206888420ED0B0F1804F0BD01349884239
:1027000008D01349884205D01249884202D01249A4
:10271000884207D18168114A1140062906D0B1F5D7
:10272000803F03D0016841F001010160284630BDBF
:1027300084F84100B6E784F84200B3E72068C26835
:1027400042F01002CEE70000002C014000040040DF
:102750000008004000340140004001400700010033
:102760002DE9F04104460068C66805694FF000078E
:10277000A90713D5B10711D5F91E016101202077F2
:10278000206880698007204602D0FFF76DFE04E0D4
:1027900000F0B7F8204600F0B5F82777680716D59F
:1027A000700714D521686FF00400086102202077BB
:1027B0002068806910F4407F204602D0FFF754FE65
:1027C00004E000F09EF8204600F09CF827772807E8
:1027D00015D5300713D521686FF008000861042073
:1027E00020772068C0698007204602D0FFF73CFEB2
:1027F00004E000F086F8204600F084F82777E80629
:1028000016D5F00614D521686FF010000861082075
:1028100020772068C06910F4407F204602D0FFF77F
:1028200023FE04E000F06DF8204600F06BF82777F7
:10283000E80708D0F00706D021686FF001000861B2
:10284000204600F060F8280601D4A80408D5300618
:1028500006D521686FF4025008612046FFF76DFC31
:10286000E80508D5300606D521686FF48070086148
:102870002046FFF761FC680608D5700606D521687A
:102880006FF040000861204600F07EF8A80608D5E9
:10289000B00606D521686FF0200008612046FFF7DA
:1028A0004DFCE80208D5F00206D521686FF48010CF
:1028B00008612046FFF744FCA80208D5B00206D5FF
:1028C00021686FF4001008612046FFF738FC6802A9
:1028D00008D5700206D521686FF480000861204693
:1028E000FFF72FFC28020AD5300208D521686FF4C3
:1028F000000008612046BDE8F041FFF771BCBDE86B
:10290000F0817047704770470246002041B10429AA
:1029100009D008290AD00C2901D11068006C704731
:102920001068406B70471068806B70471068C06B10
:10293000704770B5044690F83C00012812D001257C
:1029400084F83C50022084F83D00204601F006F84F
:1029500001004FF0000007D084F83D5084F83C009F
:10296000012070BD022070BD2168CA6822F04002BB
:10297000CA602168CA6822F48042CA6084F83D5067
:1029800084F83C00002070BD7047FEE72DE9F0415F
:102990005C4D28685C4C216B401A32287ED3286835
:1029A000206300F0B5F8A070E278102620EA02015A
:1029B00042408243217162700027E07004291DD1DA
:1029C0006079012802D0002130B100E0012100220D
:1029D000114303D0667108E00122F9E7102802D004
:1029E000202807D007E020206071207820F0010027
:1029F000207000E06771002000F0D8F820790328EB
:102A000001D12868A0816078032822D12868A18993
:102A1000401AB0F5C87F607917D240B1012808D0BC
:102A2000102808D0112808D0122809D009E0012068
:102A300004E0677105E0112000E01220607100E001
:102A40006671002000F0B2F803E0202801D100F008
:102A5000B1FE20794FF47A75012811D160791028E0
:102A600027D011282ED012284AD12089643000B2F4
:102A70002081A84200DB25815FF0900000F0A8F8DB
:102A8000207902283CD16079102826D011282ED038
:102A9000122835D12089643800B200E030E01B49AB
:102AA0002081884200DC21819020BDE8F04100F0C7
:102AB0008FB8E088643080B2E080A84200D3E5801F
:102AC0006020DBE7608964306081E18842F2107049
:102AD000814200D3E0807820D0E7E088643880B27B
:102AE000E080642801D86420E0806020DDE7608910
:102AF00064386081E088A84200D8E5807820D4E777
:102B0000BDE8F081540000200000002018FCFFFF09
:102B100070B50E4D002401212846FEF7C5FE00B910
:102B2000012402212846FEF7BFFE00B90224042139
:102B30002846FEF7B9FE00B9032401214FF090406A
:102B4000FEF7B2FE00B90424204670BD0004004820
:102B500000B585B014216846FDF795FC4FF6FF706F
:102B6000009000200321CDE902010190694602484E
:102B7000FEF776FD05B000BD0008004800B585B041
:102B800014216846FDF77FFC4FF6FF70009001208E
:102B90000190032003900020029069460248FEF74E
:102BA0005FFD05B000BD00000008004870B50024BE
:102BB00006462146204600F013F900F051F94FF483
:102BC0009635304600F020F9641CAC42F9D370BD54
:102BD00001A100F061B8000020202020202020204A
:102BE0002020202020202020202020200000000065
:102BF00030B587B014216846FDF745FC1E48C16C0E
:102C000041F00401C164C16C01F004010591C16C83
:102C100041F00101C164C16C01F001010591C16C79
:102C200041F00201C164C06C012500F00200059072
:102C30004FF44870CDE900050024039469460294DE
:102C40000E48FEF70DFD280203940090CDE90154D3
:102C50004FF0904469462046FEF702FDFFF78EFFD5
:102C6000A06940F48070A06104481830016841F404
:102C70000871016007B030BD001002400004004838
:102C8000203AD2B2034B02EB420203EB021200F0F5
:102C900019B800003A3E0008F0B50E460746002578
:102CA00040F23F1407E021463846FFF7E9FF103CA9
:102CB0006D1CA4B2761C3278002A01D0142DF2D3F8
:102CC000F0BD00002DE9F04791468A4600260446F3
:102CD00000F086F8DFF84080012700BF00F0C0F860
:102CE0005FF0000539F8160007FA05F10842404682
:102CF00001D1408800E0008800F086F86D1C102D9E
:102D0000F0D3641CE4B25146204600F069F8761C0A
:102D1000182EE3D3BDE8F0874400002010B5FFF77C
:102D200067FF002000F014F8084CA080A088A0F5F0
:102D30000241303906D000F03BFC002000F008F8DA
:102D4000A08010BD00F0ABFBF7E7000044000020BE
:102D500070B51D490A6842F400720A600A6842F4BC
:102D600080720A60184C103C226842F020022260F7
:102D7000164A1060086840F02000086000BF00BFDD
:102D800000BF206840F020002060206840F4807080
:102D90002060FFF7DDFE4FF09041886A40F48070BC
:102DA000886200BF00BF00BF0848001F006885B2EE
:102DB000886940F480708861FFF7E0FE206840F485
:102DC00000702060284670BD2804004814080048A0
:102DD00001B5BDF800000149488008BD440000204D
:102DE00010B50C460146202000F068F82146BDE8E9
:102DF0001040212000F062B801B5BDF80000014983
:102E0000088008BD44000020134A116841F4007195
:102E10001160114910390B6843F480730B600B6823
:102E200043F020030B600D4B1860106840F0200049
:102E3000106000BF00BF00BF086840F020000860BD
:102E4000086840F48070086000BF00BF00BF0868D9
:102E500040F40070086070472804004814080048D7
:102E60001449086840F400700860086840F48070F5
:102E7000086010481038026842F0200202600E4BD1
:102E800022221A600A6842F020020A6000BF00BFD6
:102E900000BF016841F020010160016841F48071C8
:102EA000016000BF00BF00BF016841F40071016014
:102EB000704700002804004814080048184B10B55B
:102EC0001A6842F400721A601A6842F480721A603A
:102ED000134A103A146844F020041460114C206026
:102EE000186840F02000186000BF00BF00BF1068E5
:102EF00040F020001060106840F480701060216085
:102F0000186840F02000186000BF00BF00BF1068C4
:102F100040F020001060106840F48070106010BD18
:102F2000280400481408004870B58F482DED028B26
:102F300001688E4CA26B891A64297DD30068A06356
:102F4000E3898B48B0FBF3F16182228AB0FBF2F295
:102F5000A282258929440904090C2A44618392B27A
:102F6000A28338D0B0FBF1F1B0FBF2F0E182208314
:102F70000121B1FBF3F0608260799FED7E8B4FF40D
:102F80007A7500282AD001286ED0B1EB101F7DD1B0
:102F90007AA17E48FDF7A0F97C493020FFF77CFE3E
:102FA000E2887BA17948FDF797F978496020FFF71F
:102FB00073FE62897AA17548FDF78EF9734978200E
:102FC000FFF76AFEB4F9082079A17048FDF784F98B
:102FD0006E499020BFE00020E082C9E7207878A108
:102FE00040F0010020706948FDF776F9674930200C
:102FF000FFF752FE608B38B1A8420AD2024674A194
:103000006248FDF769F912E074A16048FDF764F9C0
:103010000DE000F0F9FD53EC182B00F009FE41EC37
:10302000100B71A153EC102B5848FDF755F9574977
:103030006020FFF731FE00E093E0A08B002848D02D
:10304000A84202D202466CA13FE000F0DDFD53EC45
:10305000182B00F0EDFD41EC100B6AA153EC102B86
:1030600049E04A49782076E055A14848FDF734F90F
:1030700046493020FFF710FEE08A40B1A8420BD24B
:10308000024664A14148FDF727F913E037E053A158
:103090003E48FDF721F90DE000F0B6FD53EC182B8A
:1030A00000F0C6FD41EC100B5DA153EC102B37482E
:1030B000FDF712F935496020FFF7EEFD208B40B196
:1030C000A18BA9420AD2024659A13048FDF704F962
:1030D000C7E75AA12D48FDF7FFF8C2E7A842C0D3C1
:1030E00000F092FD53EC182B00F0A2FD41EC100B08
:1030F00055A153EC102B2548FDF7EEF8B1E7202839
:103100002FD155A12148FDF7E7F820493020FFF7DE
:10311000C3FDE28B54A11D48FDF7DEF81B4960207A
:10312000FFF7BAFD228C53A11848FDF7D5F81749CF
:103130007820FFF7B1FD628C51A11448FDF7CCF85F
:1031400012499020FFF7A8FDA28C50A10F48FDF76F
:10315000C3F80E49A820BDEC028BBDE87040FFF714
:103160009BBDBDEC028B70BD540000200000002010
:1031700040420F00FCA9F1D24D62503F2020202098
:103180002020202050415241000000005C0000201F
:10319000202020202050443D2564487A0000000073
:1031A000202020202050483D2564487A000000005F
:1031B000202020202050583D2564487A000000003F
:1031C00020202020202020204441544100000000E5
:1031D0002020202020413D2564487A002020202006
:1031E00020413D4E554C4C002020202020413D25C3
:1031F0002E32664B487A00002020202020423D25B8
:1032000064487A002020202020423D252E32664B43
:10321000487A00002020202020413D25647573005D
:103220002020202020413D252E32666D73000000B5
:103230002020202020423D2564757300202020207E
:1032400020423D4E554C4C002020202020423D2560
:103250002E32666D730000002020202020202020C8
:10326000524543440000000020202020204E4441CD
:103270003D25640020202020204E44423D2564004E
:1032800020202020204E48413D2564002020202081
:10329000204E48423D25640070B5124D044601227F
:1032A0004FF47F412846FEF704FB0F4E0122042114
:1032B0003046FEF7FEFA002204213046FEF7F9FA06
:1032C000210200222846FEF7F4FA012204213046AA
:1032D000FEF7EFFA3046BDE8704000220421FEF709
:1032E000E8BA000000080048000C00480D4810B57E
:1032F00001680D4C626B891AC82912D3006860639B
:103300002078FFF7C9FFE08B032802D2208C032826
:1033100003D3207840F0800002E0207820F0800085
:10332000207010BD5400002000000020FEE7FEE7E2
:1033300010B590B0002409940A940B94142104A8A9
:103340000C94FDF7A0F826480D940F940E94009469
:10335000019402944FF080410394C0E900144FF6A9
:10336000FF71C0E9024104618461FEF73AFF08B1D0
:10337000FEF762F94FF48050099009A91848FEF74A
:10338000F3FF08B1FEF758F91548FFF721F908B126
:10339000FEF752F9042004905020CDE9050404A959
:1033A0000F480894FFF7C5FA08B1FEF745F90D94E8
:1033B0000DA90B480F94FEF7C5FE08B1FEF73CF9C6
:1033C0000120CDE90040029400226946044803949C
:1033D000FFF76CF8002801D0FEF72EF910B010BDF1
:1033E0007400002010B590B0002409940A940B9446
:1033F000142104A80C94FDF746F827480D940F9467
:103400000E9400940194029422490394C0E900149C
:103410004FF6FF71C0E9024104618461FEF7E1FEED
:1034200008B1FEF709F94FF48050099009A91A482C
:10343000FEF79AFF08B1FEF7FFF81748FFF7C8F844
:1034400008B1FEF7F9F8042004905020CDE90504F6
:1034500004A911480894FFF76CFA08B1FEF7ECF8DC
:103460000D940DA90C480F94FEF76CFE08B1FEF701
:10347000E3F80120CDE900400294042269460648A1
:103480000394FFF713F8002801D0FEF7D5F810B029
:1034900010BD000000040040C0000020704730B59F
:1034A00001210020FFF70AFD4FF47A70FEF758F86B
:1034B00000210120FFF702FD41F290711020FFF77B
:1034C000FDFC4FF41C516020FFF7F8FC0121612046
:1034D000FFF7F4FC02214620FFF7F0FC48F2100150
:1034E0001320FFF7EBFC48F2FE011220FFF7E6FC89
:1034F0004FF4A0610220FFF7E1FC41F2300103200C
:10350000FFF7DCFC40F2033421463020FFF7D6FC05
:1035100021463120FFF7D2FC21463220FFF7CEFCB6
:10352000E51E29463320FFF7C9FC03213420FFF7AD
:10353000C5FC21463520FFF7C1FC14213620FFF7DA
:10354000BDFC21463720FFF7B9FC21463820FFF7A4
:10355000B5FC21463920FFF7B1FC29463A20FFF798
:10356000ADFC03213B20FFF7A9FC21463C20FFF7DF
:10357000A5FC4FF4A0513D20FFF7A0FC4FF40071D3
:103580009220FFF79BFC21469320FFF797FC40F623
:103590000D019020FFF792FC41F218010320FFF784
:1035A0008DFCBDE8304040F273110720FFF786BC68
:1035B00010B543F20801E320FFF780FC1221E72059
:1035C000FFF77CFC41F23121EF20FFF777FC00216F
:1035D0000120FFF773FC4FF4E0610220FFF76EFC5F
:1035E00041F230010320FFF769FC00210420FFF7BE
:1035F00065FC40F207210820FFF760FC002109204C
:10360000FFF75CFC00210A20FFF758FC00210C208A
:10361000FFF754FC00210D20FFF750FC00210F2084
:10362000FFF74CFC00211020FFF748FC0721112078
:10363000FFF744FC00211220FFF740FC002113207B
:10364000FFF73CFCC820FDF7F9FF41F29061102024
:10365000FFF734FC40F227211120FFF72FFC322026
:10366000FDF7ECFF1D211220FFF728FC3220FDF7AB
:10367000E5FF4FF400611320FFF720FC14212920FF
:10368000FFF71CFC0B212B20FFF718FC3220FDF765
:10369000D5FF00212020FFF711FC00212120FFF79A
:1036A0000DFC07213020FFF709FC40F207713120A3
:1036B000FFF704FC06213220FFF700FC40F2047102
:1036C0003520FFF7FBFB41F604713620FFF7F6FBD0
:1036D00004213720FFF7F2FB00213820FFF7EEFB33
:1036E00040F206713920FFF7E9FB40F201713C20FE
:1036F000FFF7E4FB0F213D20FFF7E0FB0021502006
:10370000FFF7DCFBEF215120FFF7D8FB002152200F
:10371000FFF7D4FB40F23F115320FFF7CFFB4FF4EC
:103720001C516020FFF7CAFB01216120FFF7C6FB97
:1037300000216A20FFF7C2FB00218020FFF7BEFBBB
:1037400000218120FFF7BAFB00218220FFF7B6FBA2
:1037500000218320FFF7B2FB00218420FFF7AEFB9E
:1037600000218520FFF7AAFB10219020FFF7A6FB80
:1037700000219220FFF7A2FB03219320FFF79EFB7D
:103780004FF488719520FFF799FB00219720FFF7F0
:1037900095FB00219820FFF791FB41F218010320CF
:1037A000FFF78CFBBDE8104040F273110720FFF7D4
:1037B00085BB000003480021C183018441848184CA
:1037C00070470000000000207047FEF77DB810B57C
:1037D00094B038216846FCF756FE14210EA8FCF779
:1037E00052FE4FF40070FEF705F90120009000042E
:1037F000019002200324CDE907041421CDE90A1029
:103800000C900D9009946846FEF780FA08B172B6E4
:10381000FEE70F20CDE90E040020109011901290C9
:1038200002210EA8FEF74CF9002801D072B6FEE77F
:1038300014B010BD0248016841F470010160704786
:1038400088ED00E00148FEF78BBF00007400002007
:103850000148FEF785BF0000C00000202DE9F043BD
:103860000268264B264D274E274C4FF08049984240
:1038700007D0484505D0A84203D0B04201D0A042AD
:1038800003D122F070074A683A43204FDFF880C026
:10389000DFF8808098420DD048450BD0A84209D06F
:1038A000B04207D0A04205D0B84203D0604501D055
:1038B000404503D122F44075CA682A434D6922F07D
:1038C00080022A4302608A68C2620A688262984261
:1038D00007D0A04205D0B84203D0604501D0404592
:1038E00001D109690163012141610169C90703D05F
:1038F000016921F001010161BDE8F083002C014064
:103900000004004000080040003401400040014035
:10391000004401400048014010B501F01F0301219F
:10392000046A99408C430462016A9A40114301621F
:1039300010BD10B5846842EA032224F47F440A4390
:103940002243826010BD00008268034B1A400A4384
:1039500042F00701816070478FFFCFFF70B50568A7
:103960000024AA682E4B1A404B6813432D4A13407B
:103970000A681A43AA604A68602A4AD00DDC302AD5
:103980001FD005DCEAB1102A1BD0202A18D118E07C
:10399000402A1FD0502A13D135E0234D531BAA4291
:1039A0000FD009DC702A0ED0B2F1101F09D0203AD6
:1039B000B2F5801F04D104E0102B02D0402B00D0C0
:1039C0000124204670BD0B69D1E902210068FFF790
:1039D000B0FFF6E70A68052A13D0B2F1011F10D034
:1039E0000268136A156A25F0010515620268956977
:1039F000096925F0F00545EA01119161006803624B
:103A0000DFE7012070BD0A698968006800F00EF8E0
:103A1000D7E70A698968006800F050F8D1E700002C
:103A20008FFFCFFFF8FFFEFF3000100010B5036AD4
:103A3000046A24F001040462846924F0F00444EA76
:103A4000021423F00A020A438461026210BD0000DE
:103A500070B5056A046A24F0010404628469124E98
:103A6000B0420ED0B0F1804F0BD0104EB04208D013
:103A70000F4EB04205D00F4EB04202D00E4EB042B3
:103A800003D124F00304144301E044F001041A07B5
:103A900024F0F00444EA126225F00A0301F00A015E
:103AA00019438261016270BD002C01400004004096
:103AB00000080040003401400040014010B5036A96
:103AC000046A24F010040462846923F0A00324F43F
:103AD000704444EA023243EA01118261016210BD7E
:103AE00030B5046A056A25F010050562856925F47C
:103AF000407545EA022222F470454FF6FF7202EA51
:103B0000033224F0A0032A43A02404EA011119433C
:103B10008261016230BDFEE703B401984100009864
:103B200050EAC12018BF04204A0D18BF40F0010020
:103B300040F2FF72B2EB515F08BF40F00200012873
:103B400008BF052002B070470907090E002804DBF2
:103B500000F1E02080F80014704700F00F0000F141
:103B6000E02080F8141D704730380A2801D2012067
:103B70007047002070470000FDF7AEFEFFF727FEFC
:103B8000FDF770FCFFF7CAF80020FFF721F94FF6A8
:103B9000FF70FFF731F90020FFF708F8FFF7C8FBC7
:103BA000FFF720FC0B48FEF7A9FB0B48FEF7A6FB2E
:103BB00000210848FEF73EFD00210748FEF73AFDC8
:103BC000FFF794FBFEF7E2FEFFF7AEF9FDF7D6FC38
:103BD000F6E7000074000020C000002010B50029A6
:103BE0000AD00878002807D005487844FDF72AF85D
:103BF000002801D0002010BD0248784410BD00000C
:103C0000E6140000DE140000B0FA80F310FA03F1AD
:103C10000AD0C3F11D0303F580634FEA41504FEA18
:103C2000035202EBD12170474FF0000070470000B3
:103C3000DFF848C170B51CEA111E1EBF1CEA13153F
:103C40009EEA0C0F95EA0C0F00F06F8081EA0304E6
:103C500023EA4C134EEAD47E21EA4C1141F4801140
:103C600043F48013AE44A1FB024CA0FB0365AEF10C
:103C70007F7E361955EB0C05A1FB034C4CF100037C
:103C8000A0FB021C16EB0C06654153F10003094230
:103C900018BF46F0010613F4007F0BD14FEA033141
:103CA0004FEA0530340341EA155140EA16506FF0EF
:103CB00003020AE04FEAC3214FEAC520F40241EAB9
:103CC000555140EA56506FF0020202EB2E4201EBD2
:103CD000025585EACE710AD05FEA440C18BF24F081
:103CE000004450F1000041F1000120EAD47040F29C
:103CF000FE7C624500D270BDA84214BF4FF08044E4
:103D00004FF04044002E08BF0024BEF1806FA8BFD2
:103D1000A1F1C041BDE8704080F282804FF0000008
:103D200001F1C04101F0004170479EEA0C0F0CEA1E
:103D3000131518BF95EA0C0F06D04FF0000081EA6A
:103D4000030E0EF0004170BD00F01CF88900013E2A
:103D500000F007B800F009B84FEA430C5FEA5C5C7A
:103D600008D081EA030100F05BB84FEA410C5FEA3A
:103D70005C5CF6D14FF00000014970470000FF077E
:103D80000000F87F0EF1020E2EF0030E5EF8046BB9
:103D9000364205D4012A43EB030515F5001F12D85E
:103DA000012841EB010C1CF5001F0CD80ED14FEA85
:103DB000D17C15F5001F0CEB4C0C0CF1020C08BF6C
:103DC0004CEBD37C04E04FF0080C01E04FEAD37CCD
:103DD0000CEB4C0526FA05F606F00706B6F1040CC6
:103DE00006D20EEB860CBDE870404CF0010C60472B
:103DF000DFE80CF0090B02024FF000414FF0000029
:103E0000A1F5002170BD19461046012851EB0104AF
:103E100018BFD4F5001484BF002001F0004170BD2C
:103E20000808A0F500114FEA310170474FF04070CB
:103E3000E1EE100A7047FCF782BC000000000000B1
:103E40000000000000000000000000000000000072
:103E50000000000000000000000000000000000062
:103E60000000000000000000000000008001800150
:103E7000800180018001800180018001800180013A
:103E800080018001800100000000800180010000AD
:103E90000000000000000000000000000000CC0056
:103EA000CC00CC00CC00CC00CC0000000000000016
:103EB0000000000000000000000000000000000002
:103EC00000000000000000000000000000000000F2
:103ED000000000000000600C600C600C3006300632
:103EE000FE1FFE1F300638071803FE1FFE1F1803B3
:103EF00018038C018C018C01000000008000E0039D
:103F0000F80F9C0E8C1C8C188C009800F801E007B0
:103F1000800E801C8C188C189C18B80CF00FE003D5
:103F20008000800000000000000000000000000091
:103F30000E181B0C110C11061106110311039B0125
:103F40008E01C038C06C6044604430443044184432
:103F5000186C0C380000000000000000E001F003C5
:103F60003807180618063003F001F000F8009C31FD
:103F70000E33061E061C061C063FFC73F0210000D3
:103F800000000000000000000000000000000C0025
:103F90000C000C000C000C000C00000000000000E5
:103FA0000000000000000000000000000000000011
:103FB00000000000000000000000000000020003FC
:103FC0008001C000C00060006000300030003000A0
:103FD0003000300030003000300060006000C00071
:103FE000C00080010003000200000000200060000B
:103FF000C0008001800100030003000600060006E7
:10400000000600060006000600060003000380010B
:104010008001C000600020000000000000000000DF
:10402000000000000000C000C000D806F807E00152
:10403000300338070000000000000000000000000E
:104040000000000000000000000000000000000070
:1040500000000000000080018001800180018001DB
:10406000FC3FFC3F80018001800180018001000055
:104070000000000000000000000000000000000040
:104080000000000000000000000000000000000030
:10409000000000000000000000000000800180011E
:1040A000000100018000000000000000000000008E
:1040B0000000000000000000000000000000000000
:1040C0000000E007E0070000000000000000000022
:1040D00000000000000000000000000000000000E0
:1040E00000000000000000000000000000000000D0
:1040F000000000000000000000000000C000C00040
:10410000000000000000000000000000000C000C97
:104110000006000600060003000300038003800180
:1041200080018001C000C000C0006000600000008D
:10413000000000000000000000000000E003F007A5
:10414000380E180C0C180C180C180C180C180C182D
:104150000C180C180C18180C380EF007E0030000AF
:1041600000000000000000000000000000018001CD
:10417000C001F00198018801800180018001800167
:1041800080018001800180018001800180010000A8
:10419000000000000000000000000000E003F80F35
:1041A000180C0C180C1800180018000C000600035E
:1041B0008001C000600030001800FC1FFC1F0000E0
:1041C000000000000000000000000000E001F8070F
:1041D000180E0C0C0C0C000C0006C003C007000CE1
:1041E000001800180C180C18180CF807E003000051
:1041F000000000000000000000000000000C000EA5
:10420000000F000F800DC00C600C600C300C180CFF
:104210000C0CFC3FFC3F000C000C000C000C0000E0
:10422000000000000000000000000000F80FF80F80
:10423000180018000C00EC03FC071C0E001C0018F2
:10424000001800180C181C0C180EF807E0030000EA
:10425000000000000000000000000000C007F00F98
:10426000381C181818000C00CC03EC0F3C0E1C1C5A
:104270000C180C180C18181C380EF007E00300007E
:10428000000000000000000000000000FC1FFC1FF8
:10429000000C00060006000380038001C001C0007E
:1042A000E00060006000700030003000300000006E
:1042B000000000000000000000000000E003F00724
:1042C000380E180C180C180C3806F007F007180CEC
:1042D0000C180C180C180C18380CF80FE003000020
:1042E000000000000000000000000000E003F007F4
:1042F000380E1C0C0C180C180C181C1C381EF81B43
:10430000E0190018000C000C1C0EF807F00100006A
:10431000000000000000000000000000000000009D
:10432000000000000000800180010000000000008B
:10433000000000000000000000008001800100007B
:10434000000000000000000000000000000000006D
:10435000000000000000800180010000000000005B
:10436000000000000000000000008001800100014A
:1043700000018000000000000000000000000000BC
:10438000000000000000000000000010001C800F72
:10439000E003F8001800F800E003800F001C001094
:1043A000000000000000000000000000000000000D
:1043B00000000000000000000000F81F00000000E6
:1043C0000000F81F000000000000000000000000D6
:1043D00000000000000000000000000000000000DD
:1043E0000000000000000000000008003800F0019C
:1043F000C007001F0018001FC007F00138000800A8
:10440000000000000000000000000000E003F80FC2
:10441000180C0C180C180018000C00060003800182
:10442000C000C000C00000000000C000C0000000CC
:104430000000000000000000000000000000E00795
:1044400018180420C229224A114409440944094485
:1044500009221113E20C024004201818E0070000A2
:104460000000000000000000000000008003800346
:10447000C006C006C006600C600C3018301830183A
:10448000F83FF83F1C700C600C6006C006C00000CE
:10449000000000000000000000000000FC03FC0F12
:1044A0000C0C0C180C180C180C0CFC07FC0F0C183E
:1044B0000C300C300C300C300C18FC1FFC070000CA
:1044C000000000000000000000000000C007F01F16
:1044D00038381C300C700660060006000600060026
:1044E0000600060006600C701C30F01FE00700009C
:1044F000000000000000000000000000FE03FE0FAE
:10450000060E06180618063006300630063006304D
:104510000630063006180618060EFE0FFE030000D1
:10452000000000000000000000000000FC3FFC3F15
:104530000C000C000C000C000C00FC1FFC1F0C00FD
:104540000C000C000C000C000C00FC3FFC3F0000B9
:10455000000000000000000000000000F83FF83FED
:1045600018001800180018001800F81FF81F18008D
:104570001800180018001800180018001800000093
:10458000000000000000000000000000E00FF83F05
:104590003C780E6006E007C00300030003FE03FE44
:1045A00003C007C006C00EC03CF0F83FE00F00009B
:1045B0000000000000000000000000000C300C3083
:1045C0000C300C300C300C300C30FC3FFC3F0C300D
:1045D0000C300C300C300C300C300C300C30000037
:1045E00000000000000000000000000080018001C9
:1045F00080018001800180018001800180018001B3
:104600008001800180018001800180018001000023
:10461000000000000000000000000000000600068E
:10462000000600060006000600060006000600065A
:1046300000060006180618063807F003E00100001F
:104640000000000000000000000000000630061816
:10465000060C060606038601C60066007600DE002C
:104660008E0106030606060C0618063006600000DA
:10467000000000000000000000000000180018000A
:10468000180018001800180018001800180018006A
:1046900018001800180018001800F81FF81F000074
:1046A0000000000000000000000000000EE01EF00E
:1046B0001EF01EF036D836D836D836D866CC66CC42
:1046C00066CCC6C6C6C6C6C6C6C686C386C30000F6
:1046D0000000000000000000000000000C301C3052
:1046E0003C303C306C306C30CC30CC308C310C33C6
:1046F0000C330C360C360C3C0C3C0C380C300000E7
:10470000000000000000000000000000E007F81FAB
:104710001C380E70066003C003C003C003C003C092
:1047200003C003C006600E701C38F81FE0070000CD
:10473000000000000000000000000000FC0FFC1F53
:104740000C380C300C300C300C300C18FC1FFC07F3
:104750000C000C000C000C000C000C000C00000005
:10476000000000000000000000000000E007F81F4B
:104770001C380E70066003E003C003C003C003C012
:1047800003C007E006630E3F1C3CF83FE0F700C0A3
:10479000000000000000000000000000FE0FFE1FEF
:1047A00006380630063006300638FE1FFE070603C0
:1047B0000606060C061806180630063006600000CD
:1047C000000000000000000000000000E003F80FFF
:1047D0001C0C0C180C180C001C00F803E00F001E39
:1047E0000038063006300E301C1CF80FE0070000C1
:1047F000000000000000000000000000FE7FFE7FBF
:1048000080018001800180018001800180018001A0
:104810008001800180018001800180018001000011
:104820000000000000000000000000000C300C3010
:104830000C300C300C300C300C300C300C300C3098
:104840000C300C300C300C301818F81FE00700004A
:1048500000000000000000000000000003600630BF
:10486000063006300C180C180C18180C180C380EE2
:1048700030063006700760036003C001C00100000D
:104880000000000000000000000000000360C361A1
:10489000C361C3616633663366336633663366333A
:1048A0006C1B6C1B6C1B2C1A3C1E380E380E000047
:1048B0000000000000000000000000000FE00C708D
:1048C00018303018700C600EC00780038003C003DE
:1048D000E006700C301C18180C300E6007E0000069
:1048E00000000000000000000000000003C006609F
:1048F0000C301C383818300C6006E007C00380010B
:104900008001800180018001800180018001000020
:10491000000000000000000000000000FC7FFC7FA1
:10492000006000300018000C000600038001C00089
:104930006000300018000C000600FE7FFE7F0000C3
:10494000000000000000000000000000E003E003A1
:104950006000600060006000600060006000600057
:104960006000600060006000600060006000600047
:1049700060006000E003E003000000003000300051
:10498000600060006000C000C000C000C001800185
:104990008001800100030003000300060006000000
:1049A000000000000000000000000000E003E00341
:1049B00000030003000300030003000300030003DF
:1049C00000030003000300030003000300030003CF
:1049D00000030003E003E003000000000000C0014A
:1049E000C00160036003600330063006180C180C29
:1049F00000000000000000000000000000000000B7
:104A000000000000000000000000000000000000A6
:104A10000000000000000000000000000000000096
:104A2000000000000000000000000000FFFFFFFF8A
:104A30000000000000000000000000000C000C005E
:104A40000C000C000C000C00000000000000000036
:104A50000000000000000000000000000000000056
:104A60000000000000000000000000000000000046
:104A7000000000000000F003F8071C0C0C0C000FF5
:104A8000F00FF80C0C0C0C0C1C0FF80FF0180000B9
:104A900000000000000000000000000018001800E6
:104AA000180018001800D803F80F380C1818181838
:104AB0001818181818181818380CF80FD803000010
:104AC00000000000000000000000000000000000E6
:104AD000000000000000C003F007300E180C1800A2
:104AE000180018001800180C300EF007C003000062
:104AF0000000000000000000000000000018001886
:104B0000001800180018C01BF01F301C18181818C7
:104B10001818181818181818301CF01FC01B00009F
:104B20000000000000000000000000000000000085
:104B3000000000000000C003F00F300C1818F81F30
:104B4000F81F180018003818301CF00FC0070000BC
:104B5000000000000000000000000000800FC00FF7
:104B6000C000C000C000F007F007C000C000C000D7
:104B7000C000C000C000C000C000C000C0000000F5
:104B80000000000000000000000000000000000025
:104B9000000000000000E00DF80F180E0C0C0C0CCB
:104BA0000C0C0C0C0C0C0C0C180EF80FE00D000C7F
:104BB0000C0C1C06F807F00100000000180018009B
:104BC000180018001800D807F80F381C1818181803
:104BD0001818181818181818181818181818000085
:104BE000000000000000000000000000C000C00045
:104BF000000000000000C000C000C000C000C000F5
:104C0000C000C000C000C000C000C000C000000064
:104C1000000000000000000000000000C000C00014
:104C2000000000000000C000C000C000C000C000C4
:104C3000C000C000C000C000C000C000C000C00074
:104C4000C000C000F8007800000000000C000C005C
:104C50000C000C000C000C0C0C060C038C01CC009E
:104C60006C00FC009C018C030C030C060C0C000077
:104C7000000000000000000000000000C000C000B4
:104C8000C000C000C000C000C000C000C000C00024
:104C9000C000C000C000C000C000C000C0000000D4
:104CA0000000000000000000000000000000000004
:104CB0000000000000007C3CFF7EC7E383C183C18D
:104CC00083C183C183C183C183C183C183C1000008
:104CD00000000000000000000000000000000000D4
:104CE0000000000000009807F80F381C181818186A
:104CF0001818181818181818181818181818000064
:104D000000000000000000000000000000000000A3
:104D1000000000000000C003F00F300C1818181835
:104D20001818181818181818300CF00FC0030000C5
:104D30000000000000000000000000000000000073
:104D4000000000000000D803F80F380C18181818DD
:104D50001818181818181818380CF80FD803180055
:104D600018001800180018000000000000000000E3
:104D7000000000000000C01BF01F301C181818189D
:104D80001818181818181818301CF01FC01B001815
:104D900000180018001800180000000000000000B3
:104DA000000000000000B007F00370003000300089
:104DB00030003000300030003000300030000000A3
:104DC00000000000000000000000000000000000E3
:104DD000000000000000E003F003380E180C38005B
:104DE000F003C007000C180C380EF007E0030000B9
:104DF0000000000000000000000000000000800033
:104E0000C000C000C000F007F007C000C000C00034
:104E1000C000C000C000C000C000C0078007000084
:104E20000000000000000000000000000000000082
:104E30000000000000001818181818181818181882
:104E40001818181818181818381CF01FE019000046
:104E50000000000000000000000000000000000052
:104E60000000000000000C18180C180C180C30067C
:104E700030063006600360036003C001C00100001B
:104E80000000000000000000000000000000000022
:104E9000000000000000C141C141C361636363635E
:104EA00063633636363636361C1C1C1C1C1C000050
:104EB00000000000000000000000000000000000F2
:104EC0000000000000001C38381C300C6006600335
:104ED0006003600360036006300C381C1C3800005F
:104EE00000000000000000000000000000000000C2
:104EF0000000000000001830301830187018600CE6
:104F0000600CE00CC006C0068003800380038001B3
:104F10008001C001F00070000000000000000000EF
:104F2000000000000000FC1FFC1F000C0006000336
:104F30008001C000600030001800FC1FFC1F000052
:104F400000000000000000000000000000038001DD
:104F5000C000C000C000C000C000C0006000600011
:104F6000300060004000C000C000C000C000C000B1
:104F7000C0008001000300000000000080018001EB
:104F80008001800180018001800180018001800119
:104F90008001800180018001800180018001800109
:104FA0008001800180018001000000006000C000DD
:104FB000C0018001800180018001800100030003A5
:104FC0000006000300018001800180018001800152
:104FD0008001C00060000000000000000000000030
:104FE00000000000000000000000F010F81F080F93
:104FF00000000000000000000000000000000000B1
:1050000000000000000000000000000000000000A0
:105010000000010203040607080900000240000026
:10502000000000A00000000005400000000000C8D3
:10503000000000000C4000000000409C0000000048
:10504000194000000020BCBE0000000034400000F9
:10505000BFC91B8E00000004B5400000504BCFD0EC
:105060006607E2CF010000006C4100003E8251AAB9
:10507000DFEEA73401000000D9420000DCB5A0E259
:105080003A301F97FFFFFFFFB4450000FD25A0C881
:10509000E9A3C14FFFFFFFFFFF3F000000000080BA
:1050A00000000000FF3F0000000000800000000042
:1050B000EC500008000000205C0000001402000812
:1050C000485100085C00002014070000300200086E
:1050D0001C00000043000000F8FFFFFF0C00000070
:1050E0000E0000000F0000002E0000000000000075
:1050F0000000E8030000881300000000000000002A
:10510000000000000000000000000000000000009F
:10511000000000000000000000000000000000008F
:10512000000000000000000000000000000000007F
:105130000000FFFF00000000100000000100000060
:08514000000000000024F4004F
:04000005080001D915
:00000001FF
